{
  "contractName": "Attendance",
  "abi": [
    {
      "inputs": [],
      "stateMutability": "nonpayable",
      "type": "constructor"
    },
    {
      "anonymous": false,
      "inputs": [
        {
          "indexed": true,
          "internalType": "uint32",
          "name": "employeeId",
          "type": "uint32"
        },
        {
          "indexed": false,
          "internalType": "bool",
          "name": "checkin",
          "type": "bool"
        },
        {
          "indexed": false,
          "internalType": "uint256",
          "name": "timestamp",
          "type": "uint256"
        }
      ],
      "name": "AttendanceLog",
      "type": "event"
    },
    {
      "inputs": [
        {
          "internalType": "uint32",
          "name": "",
          "type": "uint32"
        }
      ],
      "name": "employees",
      "outputs": [
        {
          "internalType": "bool",
          "name": "exists",
          "type": "bool"
        },
        {
          "internalType": "string",
          "name": "employeeName",
          "type": "string"
        },
        {
          "internalType": "string",
          "name": "designation",
          "type": "string"
        },
        {
          "internalType": "uint256",
          "name": "addedAt",
          "type": "uint256"
        }
      ],
      "stateMutability": "view",
      "type": "function"
    },
    {
      "inputs": [],
      "name": "owner",
      "outputs": [
        {
          "internalType": "address",
          "name": "",
          "type": "address"
        }
      ],
      "stateMutability": "view",
      "type": "function"
    },
    {
      "inputs": [
        {
          "internalType": "address",
          "name": "newAddress",
          "type": "address"
        }
      ],
      "name": "addAddressToWhitelist",
      "outputs": [],
      "stateMutability": "nonpayable",
      "type": "function"
    },
    {
      "inputs": [
        {
          "internalType": "address",
          "name": "newAddress",
          "type": "address"
        }
      ],
      "name": "removeAddressFromWhitelist",
      "outputs": [],
      "stateMutability": "nonpayable",
      "type": "function"
    },
    {
      "inputs": [
        {
          "internalType": "address",
          "name": "newAddress",
          "type": "address"
        }
      ],
      "name": "transferContractOwnership",
      "outputs": [],
      "stateMutability": "nonpayable",
      "type": "function"
    },
    {
      "inputs": [
        {
          "internalType": "uint32",
          "name": "employeeId",
          "type": "uint32"
        },
        {
          "internalType": "string",
          "name": "employeeName",
          "type": "string"
        },
        {
          "internalType": "string",
          "name": "designation",
          "type": "string"
        }
      ],
      "name": "addEmployee",
      "outputs": [],
      "stateMutability": "nonpayable",
      "type": "function"
    },
    {
      "inputs": [
        {
          "internalType": "uint32",
          "name": "employeeId",
          "type": "uint32"
        },
        {
          "internalType": "bool",
          "name": "checkin",
          "type": "bool"
        }
      ],
      "name": "recordAttendance",
      "outputs": [],
      "stateMutability": "nonpayable",
      "type": "function"
    },
    {
      "inputs": [],
      "name": "destroy",
      "outputs": [],
      "stateMutability": "nonpayable",
      "type": "function"
    }
  ],
  "bytecode": "0x608060405234801561001057600080fd5b50336000806101000a81548173ffffffffffffffffffffffffffffffffffffffff021916908373ffffffffffffffffffffffffffffffffffffffff16021790555060018060008060009054906101000a900473ffffffffffffffffffffffffffffffffffffffff1673ffffffffffffffffffffffffffffffffffffffff1673ffffffffffffffffffffffffffffffffffffffff16815260200190815260200160002060006101000a81548160ff021916908315150217905550611216806100d86000396000f3fe608060405234801561001057600080fd5b50600436106100885760003560e01c806383197ef01161005b57806383197ef0146100fd5780638da5cb5b14610107578063a4699f7114610125578063a843c51f1461015857610088565b80631116df921461008d578063286dd3f5146100a9578063522fc865146100c55780637b9417c8146100e1575b600080fd5b6100a760048036038101906100a29190610b9f565b610174565b005b6100c360048036038101906100be9190610b45565b6102b3565b005b6100df60048036038101906100da9190610bdf565b61042b565b005b6100fb60048036038101906100f69190610b45565b6105fc565b005b6101056106e4565b005b61010f6107b1565b60405161011c9190610d7f565b60405180910390f35b61013f600480360381019061013a9190610b72565b6107d5565b60405161014f9493929190610d9a565b60405180910390f35b610172600480360381019061016d9190610b45565b610922565b005b600160003373ffffffffffffffffffffffffffffffffffffffff1673ffffffffffffffffffffffffffffffffffffffff16815260200190815260200160002060009054906101000a900460ff16610200576040517f08c379a00000000000000000000000000000000000000000000000000000000081526004016101f790610e56565b60405180910390fd5b600260008363ffffffff1663ffffffff16815260200190815260200160002060000160009054906101000a900460ff1661026f576040517f08c379a000000000000000000000000000000000000000000000000000000000815260040161026690610e96565b60405180910390fd5b8163ffffffff167f5ae9265c4b1980e83194e225b3996b715cc723f19e7fd520a29578a7a70d138582426040516102a7929190610ded565b60405180910390a25050565b60008054906101000a900473ffffffffffffffffffffffffffffffffffffffff1673ffffffffffffffffffffffffffffffffffffffff163373ffffffffffffffffffffffffffffffffffffffff1614610341576040517f08c379a000000000000000000000000000000000000000000000000000000000815260040161033890610e76565b60405180910390fd5b60008054906101000a900473ffffffffffffffffffffffffffffffffffffffff1673ffffffffffffffffffffffffffffffffffffffff168173ffffffffffffffffffffffffffffffffffffffff1614156103d0576040517f08c379a00000000000000000000000000000000000000000000000000000000081526004016103c790610e16565b60405180910390fd5b6000600160008373ffffffffffffffffffffffffffffffffffffffff1673ffffffffffffffffffffffffffffffffffffffff16815260200190815260200160002060006101000a81548160ff02191690831515021790555050565b600160003373ffffffffffffffffffffffffffffffffffffffff1673ffffffffffffffffffffffffffffffffffffffff16815260200190815260200160002060009054906101000a900460ff166104b7576040517f08c379a00000000000000000000000000000000000000000000000000000000081526004016104ae90610e56565b60405180910390fd5b600260008463ffffffff1663ffffffff16815260200190815260200160002060000160009054906101000a900460ff1615610527576040517f08c379a000000000000000000000000000000000000000000000000000000000815260040161051e90610e36565b60405180910390fd5b6001600260008563ffffffff1663ffffffff16815260200190815260200160002060000160006101000a81548160ff02191690831515021790555081600260008563ffffffff1663ffffffff16815260200190815260200160002060010190805190602001906105989291906109f3565b5080600260008563ffffffff1663ffffffff16815260200190815260200160002060020190805190602001906105cf9291906109f3565b5042600260008563ffffffff1663ffffffff16815260200190815260200160002060030181905550505050565b60008054906101000a900473ffffffffffffffffffffffffffffffffffffffff1673ffffffffffffffffffffffffffffffffffffffff163373ffffffffffffffffffffffffffffffffffffffff161461068a576040517f08c379a000000000000000000000000000000000000000000000000000000000815260040161068190610e76565b60405180910390fd5b60018060008373ffffffffffffffffffffffffffffffffffffffff1673ffffffffffffffffffffffffffffffffffffffff16815260200190815260200160002060006101000a81548160ff02191690831515021790555050565b60008054906101000a900473ffffffffffffffffffffffffffffffffffffffff1673ffffffffffffffffffffffffffffffffffffffff163373ffffffffffffffffffffffffffffffffffffffff1614610772576040517f08c379a000000000000000000000000000000000000000000000000000000000815260040161076990610e76565b60405180910390fd5b60008060009054906101000a900473ffffffffffffffffffffffffffffffffffffffff1690508073ffffffffffffffffffffffffffffffffffffffff16ff5b60008054906101000a900473ffffffffffffffffffffffffffffffffffffffff1681565b60026020528060005260406000206000915090508060000160009054906101000a900460ff169080600101805461080b90610fc2565b80601f016020809104026020016040519081016040528092919081815260200182805461083790610fc2565b80156108845780601f1061085957610100808354040283529160200191610884565b820191906000526020600020905b81548152906001019060200180831161086757829003601f168201915b50505050509080600201805461089990610fc2565b80601f01602080910402602001604051908101604052809291908181526020018280546108c590610fc2565b80156109125780601f106108e757610100808354040283529160200191610912565b820191906000526020600020905b8154815290600101906020018083116108f557829003601f168201915b5050505050908060030154905084565b60008054906101000a900473ffffffffffffffffffffffffffffffffffffffff1673ffffffffffffffffffffffffffffffffffffffff163373ffffffffffffffffffffffffffffffffffffffff16146109b0576040517f08c379a00000000000000000000000000000000000000000000000000000000081526004016109a790610e76565b60405180910390fd5b806000806101000a81548173ffffffffffffffffffffffffffffffffffffffff021916908373ffffffffffffffffffffffffffffffffffffffff16021790555050565b8280546109ff90610fc2565b90600052602060002090601f016020900481019282610a215760008555610a68565b82601f10610a3a57805160ff1916838001178555610a68565b82800160010185558215610a68579182015b82811115610a67578251825591602001919060010190610a4c565b5b509050610a759190610a79565b5090565b5b80821115610a92576000816000905550600101610a7a565b5090565b6000610aa9610aa484610edb565b610eb6565b905082815260208101848484011115610ac557610ac4611088565b5b610ad0848285610f80565b509392505050565b600081359050610ae78161119b565b92915050565b600081359050610afc816111b2565b92915050565b600082601f830112610b1757610b16611083565b5b8135610b27848260208601610a96565b91505092915050565b600081359050610b3f816111c9565b92915050565b600060208284031215610b5b57610b5a611092565b5b6000610b6984828501610ad8565b91505092915050565b600060208284031215610b8857610b87611092565b5b6000610b9684828501610b30565b91505092915050565b60008060408385031215610bb657610bb5611092565b5b6000610bc485828601610b30565b9250506020610bd585828601610aed565b9150509250929050565b600080600060608486031215610bf857610bf7611092565b5b6000610c0686828701610b30565b935050602084013567ffffffffffffffff811115610c2757610c2661108d565b5b610c3386828701610b02565b925050604084013567ffffffffffffffff811115610c5457610c5361108d565b5b610c6086828701610b02565b9150509250925092565b610c7381610f28565b82525050565b610c8281610f3a565b82525050565b6000610c9382610f0c565b610c9d8185610f17565b9350610cad818560208601610f8f565b610cb681611097565b840191505092915050565b6000610cce603a83610f17565b9150610cd9826110a8565b604082019050919050565b6000610cf1601783610f17565b9150610cfc826110f7565b602082019050919050565b6000610d14602083610f17565b9150610d1f82611120565b602082019050919050565b6000610d37601e83610f17565b9150610d4282611149565b602082019050919050565b6000610d5a601583610f17565b9150610d6582611172565b602082019050919050565b610d7981610f66565b82525050565b6000602082019050610d946000830184610c6a565b92915050565b6000608082019050610daf6000830187610c79565b8181036020830152610dc18186610c88565b90508181036040830152610dd58185610c88565b9050610de46060830184610d70565b95945050505050565b6000604082019050610e026000830185610c79565b610e0f6020830184610d70565b9392505050565b60006020820190508181036000830152610e2f81610cc1565b9050919050565b60006020820190508181036000830152610e4f81610ce4565b9050919050565b60006020820190508181036000830152610e6f81610d07565b9050919050565b60006020820190508181036000830152610e8f81610d2a565b9050919050565b60006020820190508181036000830152610eaf81610d4d565b9050919050565b6000610ec0610ed1565b9050610ecc8282610ff4565b919050565b6000604051905090565b600067ffffffffffffffff821115610ef657610ef5611054565b5b610eff82611097565b9050602081019050919050565b600081519050919050565b600082825260208201905092915050565b6000610f3382610f46565b9050919050565b60008115159050919050565b600073ffffffffffffffffffffffffffffffffffffffff82169050919050565b6000819050919050565b600063ffffffff82169050919050565b82818337600083830152505050565b60005b83811015610fad578082015181840152602081019050610f92565b83811115610fbc576000848401525b50505050565b60006002820490506001821680610fda57607f821691505b60208210811415610fee57610fed611025565b5b50919050565b610ffd82611097565b810181811067ffffffffffffffff8211171561101c5761101b611054565b5b80604052505050565b7f4e487b7100000000000000000000000000000000000000000000000000000000600052602260045260246000fd5b7f4e487b7100000000000000000000000000000000000000000000000000000000600052604160045260246000fd5b600080fd5b600080fd5b600080fd5b600080fd5b6000601f19601f8301169050919050565b7f4f776e65722063616e6e6f742072656d6f76652073656c662e205472616e736660008201527f6572206f776e65727368697020616e642074727920616761696e000000000000602082015250565b7f456d706c6f79656520616c726561647920657869737473000000000000000000600082015250565b7f4f6e6c7920707269766174652077686974656c69737420617320616363657373600082015250565b7f4f6e6c7920636f6e7472616374206f776e657220686173206163636573730000600082015250565b7f456d706c6f7965652073686f756c642065786973740000000000000000000000600082015250565b6111a481610f28565b81146111af57600080fd5b50565b6111bb81610f3a565b81146111c657600080fd5b50565b6111d281610f70565b81146111dd57600080fd5b5056fea2646970667358221220a8de35d5501539811e68fad2d1606f3c1e3d1fbb08f770a3f2380634c9d8c3e564736f6c63430008060033",
  "immutableReferences": {},
  "source": "// SPDX-License-Identifier: MIT\npragma solidity 0.8.6;\n\ncontract Attendance {\n    address public owner;\n    mapping(address => bool) private whitelist;\n\n    struct Employee {\n        bool exists;\n        string employeeName;\n        string designation;\n        uint256 addedAt;\n    }\n\n    mapping(uint32 => Employee) public employees;\n\n    event AttendanceLog(uint32 indexed employeeId, bool checkin, uint256 timestamp);\n\n    constructor() {\n        owner = msg.sender;\n        whitelist[owner] = true;\n    }\n\n    modifier onlyOwner() {\n        require(msg.sender == owner, \"Only contract owner has access\");\n        _;\n    }\n\n    modifier onlyWhiteList() {\n        require(whitelist[msg.sender], \"Only private whitelist as access\");\n        _;\n    }\n\n    function addAddressToWhitelist(address newAddress) public onlyOwner {\n        whitelist[newAddress] = true;\n    }\n\n    function removeAddressFromWhitelist(address newAddress) public onlyOwner {\n        require(\n            newAddress != owner,\n            \"Owner cannot remove self. Transfer ownership and try again\"\n        );\n        whitelist[newAddress] = false;\n    }\n\n    function transferContractOwnership(address newAddress) public onlyOwner {\n        owner = newAddress;\n    }\n\n    function addEmployee(\n        uint32 employeeId,\n        string memory employeeName,\n        string memory designation\n    ) public onlyWhiteList {\n        require(!employees[employeeId].exists, \"Employee already exists\");\n\n        employees[employeeId].exists = true;\n        employees[employeeId].employeeName = employeeName;\n        employees[employeeId].designation = designation;\n        employees[employeeId].addedAt = block.timestamp;\n    }\n\n    function recordAttendance(uint32 employeeId, bool checkin)\n        public\n        onlyWhiteList\n    {\n        require(employees[employeeId].exists, \"Employee should exist\");\n        emit AttendanceLog(employeeId, checkin, block.timestamp);\n    }\n\n    function destroy() public onlyOwner {\n        address payable addr = payable(address(owner));\n        selfdestruct(addr);\n    }\n}\n",
  "sourcePath": "/Users/Sanket/Workspace/satma-tracability/contracts/Attendance.sol",
  "compiler": {
    "name": "solc",
    "version": "0.8.6+commit.11564f7e.Emscripten.clang"
  },
  "schemaVersion": "3.4.1",
  "updatedAt": "2021-07-25T04:57:36.202Z",
  "devdoc": {
    "kind": "dev",
    "methods": {},
    "version": 1
  },
  "userdoc": {
    "kind": "user",
    "methods": {},
    "version": 1
  }
}